{
  "contractName": "DataRecords",
  "abi": [
    {
      "constant": false,
      "inputs": [
        {
          "name": "key",
          "type": "bytes32"
        },
        {
          "name": "name",
          "type": "string"
        },
        {
          "name": "description",
          "type": "string"
        }
      ],
      "name": "StoreRecord",
      "outputs": [
        {
          "name": "result",
          "type": "uint256"
        }
      ],
      "payable": false,
      "stateMutability": "nonpayable",
      "type": "function"
    },
    {
      "constant": true,
      "inputs": [
        {
          "name": "key",
          "type": "bytes32"
        },
        {
          "name": "index",
          "type": "uint256"
        }
      ],
      "name": "GetRecord",
      "outputs": [
        {
          "name": "name",
          "type": "string"
        },
        {
          "name": "description",
          "type": "string"
        }
      ],
      "payable": false,
      "stateMutability": "view",
      "type": "function"
    }
  ],
  "bytecode": "0x6060604052341561000f57600080fd5b6106af8061001e6000396000f30060606040526004361061004c576000357c0100000000000000000000000000000000000000000000000000000000900463ffffffff168063531e08ce14610051578063f027841514610112575b600080fd5b341561005c57600080fd5b6100fc60048080356000191690602001909190803590602001908201803590602001908080601f0160208091040260200160405190810160405280939291908181526020018383808284378201915050505050509190803590602001908201803590602001908080601f01602080910402602001604051908101604052809392919081815260200183838082843782019150505050505091905050610227565b6040518082815260200191505060405180910390f35b341561011d57600080fd5b6101406004808035600019169060200190919080359060200190919050506102d0565b604051808060200180602001838103835285818151815260200191508051906020019080838360005b83811015610184578082015181840152602081019050610169565b50505050905090810190601f1680156101b15780820380516001836020036101000a031916815260200191505b50838103825284818151815260200191508051906020019080838360005b838110156101ea5780820151818401526020810190506101cf565b50505050905090810190601f1680156102175780820380516001836020036101000a031916815260200191505b5094505050505060405180910390f35b60006102316104d7565b60408051908101604052808581526020018481525090506000808660001916600019168152602001908152602001600020805480600101828161027491906104fd565b9160005260206000209060020201600083909190915060008201518160000190805190602001906102a692919061052f565b5060208201518160010190805190602001906102c392919061052f565b5050509150509392505050565b6102d86105af565b6102e06105af565b6102ea84846104ac565b156104a05760008085600019166000191681526020019081526020016000208381548110151561031657fe5b906000526020600020906002020160000160008086600019166000191681526020019081526020016000208481548110151561034e57fe5b9060005260206000209060020201600101818054600181600116156101000203166002900480601f0160208091040260200160405190810160405280929190818152602001828054600181600116156101000203166002900480156103f45780601f106103c9576101008083540402835291602001916103f4565b820191906000526020600020905b8154815290600101906020018083116103d757829003601f168201915b50505050509150808054600181600116156101000203166002900480601f0160208091040260200160405190810160405280929190818152602001828054600181600116156101000203166002900480156104905780601f1061046557610100808354040283529160200191610490565b820191906000526020600020905b81548152906001019060200180831161047357829003601f168201915b50505050509050915091506104a5565b600080fd5b9250929050565b6000816000808560001916600019168152602001908152602001600020805490501015905092915050565b60408051908101604052806104ea6105c3565b81526020016104f76105c3565b81525090565b81548183558181151161052a5760020281600202836000526020600020918201910161052991906105d7565b5b505050565b828054600181600116156101000203166002900490600052602060002090601f016020900481019282601f1061057057805160ff191683800117855561059e565b8280016001018555821561059e579182015b8281111561059d578251825591602001919060010190610582565b5b5090506105ab9190610616565b5090565b602060405190810160405280600081525090565b602060405190810160405280600081525090565b61061391905b8082111561060f57600080820160006105f6919061063b565b600182016000610606919061063b565b506002016105dd565b5090565b90565b61063891905b8082111561063457600081600090555060010161061c565b5090565b90565b50805460018160011615610100020316600290046000825580601f106106615750610680565b601f01602090049060005260206000209081019061067f9190610616565b5b505600a165627a7a723058200703c64e3524a8322e7a2a9f420dcfe02e47d398b5f011f340be83ccdfa2de1b0029",
  "source": "pragma solidity ^0.4.4;\r\n\r\ncontract DataRecords {\r\n\r\n    mapping (bytes32=>Data[]) private _records;\r\n\r\n    struct Data{\r\n        string name;\r\n        string description;\r\n    }\r\n\r\n    function StoreRecord(bytes32 key, string name, string description) public returns (uint256 result) {\r\n        var record = Data(name, description);\r\n        return _records[key].push(record);\r\n    }\r\n\r\n    function GetRecord(bytes32 key, uint256 index) public view returns (string name, string description) {\r\n        if (RecordExists(key, index))\r\n        {\r\n            return(\r\n                _records[key][index].name,\r\n                _records[key][index].description\r\n            );\r\n        }\r\n        revert();\r\n    }\r\n\r\n    function RecordExists(bytes32 key, uint256 index) private view returns (bool exists) {\r\n        return _records[key].length >= index;\r\n    } \r\n}",
  "sourcePath": "C:\\Work\\SmartContractData\\contracts\\DataRecords.sol",
  "compiler": {
    "name": "solc",
    "version": "0.4.19+commit.c4cbbb05.Emscripten.clang"
  },
  "schemaVersion": "2.0.0",
  "updatedAt": "2018-05-14T22:50:33.753Z"
}